:020000040800F2
:100000004005002001010008C92B0008CB2B000887
:10001000CF2B0008D32B0008D72B000800000000CE
:10002000000000000000000000000000DD2B0008C0
:10003000DB2B000800000000DF2B0008E12B00088C
:100040001B0100081B0100081B0100081B01000820
:100050001B0100081B0100081B0100081B01000810
:100060001B0100081B0100081B0100081B01000800
:100070001B0100081B0100081B0100081B010008F0
:100080001B0100081B0100081B0100081B010008E0
:100090001B0100081B0100081B0100081B010008D0
:1000A0001B0100081B0100081B0100081B010008C0
:1000B0009B2C00081B0100081B0100081B01000805
:1000C0001B0100081B0100081B0100081B010008A0
:1000D0001B0100081B010008E32B00081B0100089E
:1000E0001B0100081B0100081B010008DFF80CD0F1
:1000F00004F014FD00480047592B0008400500207B
:100100000648804706480047FEE7FEE7FEE7FEE7B1
:10011000FEE7FEE7FEE7FEE7FEE7FEE70302000874
:10012000ED0000080CB50020019000906C480068BC
:1001300040F480306A49086000BF6948006800F4F4
:10014000003000900198401C0190009818B9019867
:10015000B0F5A06FF1D16248006800F4003010B132
:100160000120009001E0002000900098012843D178
:100170005C48006840F010005A4908600846006872
:1001800020F0030008600846006840F002000860A4
:1001900053484068524948600846406848600846ED
:1001A000406840F4806048600846406820F47C1055
:1001B00048600846406840F4E81048600846006817
:1001C00040F08070086000BF4548006800F0007093
:1001D0000028F9D04248406820F0030040494860B8
:1001E0000846406840F00200486000BF3C48406854
:1001F00000F00C000828F9D10CBD10B5FFF792FFF4
:1002000010BD10B53648006840F001003449086060
:10021000084640683449084031494860084600684B
:10022000324908402E4908600846006820F48020C2
:1002300008600846406820F4FE0048604FF41F0044
:100240008860FFF7DAFF4FF000602949086010BDB1
:1002500010B5002100200022214B5B6803F00C0147
:1002600021B1042906D0082928D107E0214B224CCE
:10027000236027E01F4B204C236023E0184B5B6872
:1002800003F47010164B5B6803F48032022303EB17
:10029000904022B9194B4343174C23600DE0104B9B
:1002A0005B6803F4003323B1144B4343124C2360C7
:1002B00003E0104B4343104C236003E00D4B0E4C06
:1002C000236000BF00BF064B5B68C3F303130C4CF5
:1002D000E15C094B1B68CB40074C236010BD00005C
:1002E00000100240002002400000FFF8FFFFF6FE71
:1002F00008ED00E000127A000000002000093D0037
:100300000400002010B50446CC48844208D10121E5
:10031000042000F02DFB0021042000F029FB46E022
:10032000C748844208D10121082000F021FB0021A8
:10033000082000F01DFB3AE0C248844208D10121A8
:10034000102000F015FB0021102000F011FB2EE022
:10035000BD48844208D10121202000F009FB002182
:10036000202000F005FB22E0B848844208D101219A
:10037000402000F0FDFA0021402000F0F9FA16E0DC
:10038000B348844208D10121802000F0F1FA002115
:10039000802000F0EDFA0AE0AE48844207D1012146
:1003A000801500F0E5FA0021A01500F0E1FA10BD7B
:1003B00010B50121084600F0DBFA0021012000F011
:1003C000D7FA10BD2DE9F041024600250026002095
:1003D00000230024002791F803C00CF00F0591F8CA
:1003E00003C00CF0100CBCF1000F03D091F802C058
:1003F0004CEA050591F800C0BCF1000F31D014683B
:1004000000202BE04FF0010C0CFA00F3B1F800C013
:100410000CEA03069E4220D183004FF00F0C0CFA29
:1004200003F7BC4305FA03FC4CEA040491F803C04B
:10043000BCF1280F06D14FF0010C0CFA00FCC2F8F9
:1004400014C00AE091F803C0BCF1480F05D14FF089
:10045000010C0CFA00FCC2F810C0401C0828D1D3D3
:100460001460B1F800C0BCF1FF0F34DD5468002007
:100470002EE000F1080C4FF0010808FA0CF3B1F877
:1004800000C00CEA03069E4221D183004FF00F0CFE
:100490000CFA03F7BC4305FA03FC4CEA040491F898
:1004A00003C0BCF1280F05D100F1080C08FA0CF8C4
:1004B000C2F8148091F803C0BCF1480F07D100F1D5
:1004C000080C4FF0010808FA0CF8C2F81080401C24
:1004D0000828CED35460BDE8F0814FF6FF7101804B
:1004E000022181700421C170704702460020936888
:1004F0000B400BB1012000E00020704701468868E6
:1005000080B2704702460020D3680B400BB1012037
:1005100000E0002070470146C86880B27047016162
:100520007047416170470AB1016100E04161704765
:10053000C16070474FF480320A43826181618261F9
:1005400082698269704702460020434B18684FF663
:100550008073184040EA021008433F4B1860704710
:100560003E49C8617047F0B50A46002300240021C7
:10057000002500F00046B6F1004F02D1364EF16979
:1005800001E0354E7168C0F3034583B200F44016B4
:10059000B6F5401F08D121F070612F4E766826F025
:1005A00070662D4F7E6012E000F48016B6F5801F55
:1005B00006D1032606FA05F4A14341F0706106E076
:1005C000460D360103FA06F6B14341F0706122B1DF
:1005D000460D360103FA06F6314300F00046B6F147
:1005E000004F02D11C4EF16101E01B4E7160F0BD65
:1005F00030B500228B071C0F0F2303FA04F2164BB1
:1006000008338C1053F824309343134C08348D1066
:1006100044F8253023468C1053F824308C07240FDF
:1006200000FA04F423430C4C08348D1044F82530B0
:1006300030BD0A49DC310860704700000008014005
:10064000000C01400010014000140140001801405E
:10065000001C014000200140000001400000204239
:10066000DF48006840F00100DD4908600846406846
:10067000DC490840DA49486008460068DA49084021
:10068000D74908600846006820F4802008600846C2
:10069000406820F4FE0048604FF41F0088607047F7
:1006A000CF49096821F48031CD4A116011460968AB
:1006B00021F480211160B0F5803F03D0B0F5802F88
:1006C0000ED106E0C649096841F48031C44A116080
:1006D00007E0C349096841F4A021C14A116000E064
:1006E00000BF00BF704710B5014600220023002064
:1006F0004A11012A02D1BA4C236806E0022A02D12B
:10070000B74C236A01E0B64C636A01F01F02012472
:1007100094401C400CB1012000E0002010BD38B511
:10072000002000900024002500BF3120FFF7DBFFF0
:1007300005460098401C00900098B0F5A06F01D0CD
:10074000002DF2D03120FFF7CEFF08B1012400E0E8
:100750000024204638BD01460020A14A106820F040
:10076000F80040EAC10010607047A0490860704777
:10077000024600209A4B586820F47C1042EA01039C
:100780001843974B58607047984908667047014670
:100790000020934A506820F00300084350607047DF
:1007A0008F48406800F00C007047014600208C4ADA
:1007B000506820F0F0000843506070470146002068
:1007C000874A506820F4E060084350607047014653
:1007D0000020834A506820F4605040EAC100506015
:1007E000704729B17E4A527A02437D4B5A7204E027
:1007F0007B4A527A82437A4B5A7270477B49D8318E
:100800000860704701460020754A506820F4404057
:100810000843506070470021714A20321170704ABD
:1008200082F82010012802D004280AD104E0012116
:100830006B4A2032117005E00521694A203211709F
:1008400000E000BF00BF7047694908607047644915
:10085000096A0143624A1162704765494439086078
:10086000704730B500210022002400235C4D6D68E4
:1008700005F00C0121B1042905D0082923D105E098
:100880005C4D056022E05B4D05601FE0544D6D68D6
:1008900005F47012524D6D6805F48034022505EBA5
:1008A00092421CB9544D554305600BE04C4D6D68A8
:1008B00005F400351DB1504D5543056002E04D4D26
:1008C0005543056002E04B4D056000BF00BF444D3D
:1008D0006D6805F0F0010909484D6B5C0568DD4065
:1008E00045603F4D6D6805F4E061090A434D6B5C5E
:1008F0004568DD4085603A4D6D6805F46051C90A70
:100900003E4D6B5C4568DD40C560354D6D6805F456
:100910004041890B3A4D6B5CC568B5FBF3F5056149
:1009200030BD29B12E4A526902432D4B5A6104E071
:100930002B4A526982432A4B5A61704729B1284A8F
:1009400092690243264B9A6104E0254A92698243E8
:10095000234B9A61704729B1214AD2690243204B47
:10096000DA6104E01E4AD26982431D4BDA617047A6
:1009700029B11B4AD2680243194BDA6004E0184AD5
:10098000D2688243164BDA60704729B1144A126963
:100990000243134B1A6104E0114A12698243104B5F
:1009A0001A61704712494039086070470F49C8649E
:1009B00070470B49C87170470948406A40F0807021
:1009C00007494862704701460020054A92680A407C
:1009D0000AB1012000E00020704701498872704789
:1009E000001002400000FFF8FFFFF6FE0000424248
:1009F0008004424200127A0000093D0014000020E9
:100A00002400002031490143314A1160704770B51C
:100A1000002100230F22C47804B32D4C246804F471
:100A2000E064C4F5E064210AC1F10403CA404478DB
:100A300004FA03F18478144021430901254C067817
:100A4000A155047804F01F050124AC4005786D1110
:100A5000AD0005F1E025C5F8004109E0047804F097
:100A60001F050124AC401C4D0678761145F8264040
:100A700070BD1A4A0A400243154B1B1F1A6070478B
:100A800039B1134A121D12680243114B1B1D1A6023
:100A900006E00F4A121D126882430D4B1B1D1A609F
:100AA0007047042808D14FF0E021096941F00401A2
:100AB0004FF0E022116107E04FF0E021096921F0D9
:100AC00004014FF0E0221161704700000000FA05B8
:100AD0000CED00E000E400E080E100E080FFFF1F9B
:100AE00010B50446FA48844208D101214015FFF7A9
:100AF0003FFF00216015FFF73BFF17E0F5488442F8
:100B000008D101210015FFF733FF00212015FFF761
:100B10002FFF0BE0F048844208D10121C803FFF702
:100B200027FF00214FF40040FFF722FF10BD30B532
:100B30000246002000235068E84C20400D790C68E4
:100B400044EA0524204350609068E54C2040D1E9F8
:100B500002542C434D7944EA450420439060D06A06
:100B600020F470000C7C641EE4B2234340EA03507E
:100B7000D06230BD00210160017141718160C160AE
:100B800001210174704721B1826842F00102826044
:100B900003E0826822F001028260704721B182681E
:100BA00042F48072826003E0826822F48072826084
:100BB000704710B50023CBB21AB144681C4344609F
:100BC00002E044689C43446010BD816841F0080124
:100BD00081607047014600208A6802F008020AB16D
:100BE000012000E000207047816841F0040181602D
:100BF0007047014600208A6802F004020AB1012011
:100C000000E00020704721B1826842F4A0028260B7
:100C100003E0826822F4A00282607047014600204F
:100C20008A6802F480020AB1012000E000207047C7
:100C300010B50A4600210023416821F46041531E8B
:100C400041EA4331416010BD21B1426842F4006283
:100C5000426003E0426822F4006242607047F0B5EF
:100C600004460D4600200021092D11DDE068A5F1A4
:100C70000A0606EB4607072606FA07F18843A5F1A0
:100C80000A0606EB460603FA06F10843E0600CE0AC
:100C9000206905EB4507072606FA07F1884305EBAF
:100CA000450603FA06F108432061072A0FDA606B54
:100CB000561E06EB86071F2606FA07F18843561EC6
:100CC00006EB860605FA06F10843606322E00D2A6A
:100CD0000FDA206BD61F06EB86071F2606FA07F1F0
:100CE0008843D61F06EB860605FA06F10843206303
:100CF00010E0E06AA2F10D0606EB86071F2606FA51
:100D000007F18843A2F10D0606EB860605FA06F107
:100D10000843E062F0BD21B1826842F48012826033
:100D200003E0826822F48012826070470146C86C3A
:100D300080B2704766484C300068704721B1426805
:100D400042F48062426003E0426822F480624260C2
:100D5000704721B1426842F48052426003E0426829
:100D600022F48052426070470A460021816821F4D3
:100D7000E04111438160704721B1826842F4004232
:100D8000826003E0826822F400428260704721B1F1
:100D9000826842F40212826003E0826822F4021246
:100DA00082607047014600208A6802F400120AB18E
:100DB000012000E000207047F0B5044615460020F1
:100DC00000220026092911DDE068A1F10A0707EBDE
:100DD000470C072707FA0CF29043A1F10A0707EB2B
:100DE000470703FA07F21043E0600CE0206901EBCB
:100DF000410C072707FA0CF2904301EB410703FA75
:100E000007F210432061A06BC0F30156EF1C06F1FE
:100E1000010CA7EB0C0707EB870C1F2707FA0CF256
:100E20009043EF1C06F1010CA7EB0C0707EB8707BB
:100E300001FA07F21043A063F0BD10B50A46002185
:100E40000023816B21F44011531E41EA0351816359
:100E500010BD08B5002300930090009B0B44009345
:100E6000009B1A6008BD08B5024600200090009261
:100E700001F12800009B184400900098006880B29F
:100E800008BD0A4600214168164B194011434160D4
:100E900070474162826270470A460021416821F032
:100EA0001F0111434160704740B109490831096889
:100EB00041F40001064A0832116007E00449083194
:100EC000096821F40001024A0832116070470000ED
:100ED0000024014000280140003C0140FFFEF0FFDB
:100EE000FDF7F1FFFFFD3FFF0246002013680B40B6
:100EF0000BB1012000E000207047CA430260704738
:100F000070B502460020002300240B125568CEB2B3
:100F100005EA060415681D4015B10CB1012000E07A
:100F2000002070BD00220A12D34303607047000006
:100F300010B50446FE48844208D10121C014FFF7D1
:100F400017FD0021E014FFF713FDC4E0B4F1804F5A
:100F500008D101210846FFF718FD00210120FFF705
:100F600014FDB8E0F348844208D101210220FFF7C4
:100F70000CFD00210220FFF708FDACE0EE488442A2
:100F800008D101210420FFF700FD00210420FFF714
:100F9000FCFCA0E0E948844208D101210820FFF7C9
:100FA000F4FC00210820FFF7F0FC94E0E4488442C0
:100FB00008D101211020FFF7E8FC00211020FFF7E5
:100FC000E4FC88E0DF48844208D101212020FFF7BB
:100FD000DCFC00212020FFF7D8FC7CE0DA488442CA
:100FE00008D101214014FFF7C3FC00216014FFF772
:100FF000BFFC70E0D548844209D10121C804FFF745
:10100000B7FC00214FF40020FFF7B2FC63E0D048AA
:10101000844209D101210805FFF7AAFC00214FF401
:101020008010FFF7A5FC56E0CA48844209D101218F
:101030004805FFF79DFC00214FF40010FFF798FCD6
:1010400049E0C548844208D101214020FFF79DFCBA
:1010500000214020FFF799FC3DE0C048844208D1C0
:1010600001218020FFF791FC00218020FFF78DFCFB
:1010700031E0BB48844208D101218015FFF785FC8F
:101080000021A015FFF781FC25E0B648844209D174
:1010900001210804FFF76CFC00214FF48030FFF7BA
:1010A00067FC18E0B048844209D101214804FFF7E9
:1010B0005FFC00214FF40030FFF75AFC0BE0AB4817
:1010C000844208D101218804FFF752FC00214FF42B
:1010D0008020FFF74DFC10BD00220288944B9842FF
:1010E0000ED0994B98420BD0B0F1804F08D0914B65
:1010F000984205D0904B984202D0904B984204D130
:101100004FF68F731A404B881A438D4B984207D085
:101110008C4B984204D04FF6FF431A40CB881A43B9
:1011200002808B8883850B880385814B98420BD086
:10113000854B984208D08B4B984205D08A4B9842F9
:1011400002D08A4B984201D10B7A03860123838215
:10115000704770B5002400220023058C4FF6FE7600
:1011600035400584028C8388048B4FF68F752C40A4
:10117000B51E2C400D882C43751E2A400D892A432C
:101180004D882A436A4DA8420BD06F4DA84208D023
:10119000744DA84205D0744DA84202D0734DA842A8
:1011A00013D14FF6F7752A404D892A434FF6FB7548
:1011B0002A408D882A434FF6FF652B404FF6FF5596
:1011C0002B408D892B43CD892B4383800483CD888D
:1011D0008586028470BD70B5002400220023058C32
:1011E0004FF6EF7635400584028C8388048B48F6F1
:1011F000FF752C404FF6FF452C400D884FF6FF76CB
:1012000006EA05252C434FF6DF752A400D8906EACC
:1012100005152A434D8806EA05152A43444DA84280
:1012200002D0494DA8421DD14FF67F752A404D8905
:101230004FF6FF7606EA05152A434FF6BF752A409A
:101240008D8806EA05152A434FF6FF352B404FF2ED
:10125000FF752B408D8906EA85052B43CD8906EA6B
:1012600085052B4383800483CD880587028470BD68
:1012700070B5002400220023058C4FF6FF66354030
:101280000584028C8388848B4FF68F752C404FF633
:10129000FC752C400D882C434FF6FF552A400D89D4
:1012A0004FF6FF7606EA05252A434D8806EA05250E
:1012B0002A431F4DA84202D0234DA8421DD14FF210
:1012C000FF752A404D894FF6FF7606EA05252A4329
:1012D0004FF6FF352A408D8806EA05252A434EF64B
:1012E000FF752B404DF6FF752B408D8906EA0515DD
:1012F0002B43CD8906EA05152B4383808483CD8853
:101300008587028470BD70B5002200230024058CFF
:101310004EF6FF7635400584038C8488828B48F630
:10132000FF752A404FF6FF452A400D8820E0000057
:10133000002C01400004004000080040000C004068
:10134000001000400014004000340140004C0140F7
:10135000005001400054014000180040001C0040B3
:10136000002000400040014000440140004801408E
:101370004FF6FF7606EA05252A434DF6FF752B400A
:101380000D8906EA05352B434D8806EA05352B43C2
:10139000FA4DA84202D0FA4DA84208D14BF6FF758B
:1013A0002C408D894FF6FF7606EA85152C43848004
:1013B0008283CD88A0F84050038470BD828B4FF2A9
:1013C000FF331A408283828B4FF6FF7303EA0123B7
:1013D0001A4382837047F0B50C461546002200215F
:1013E0000026078C4EF6FF7C07EA0C070784828BE9
:1013F000018C4FF6FF7707EA043640F6FF473A4084
:101400004FF6FF7707EA05273A434FF6FF7707EADB
:1014100003373A43D94FB8420ED0D94FB8420BD018
:10142000B0F1804F08D0D74FB84205D0D64FB84260
:1014300002D0D64FB84206D14DF6FF77394046F478
:101440008057394305E047F6FF57394044F4805749
:10145000394382830184F0BD828B4FF6F3731A40C7
:101460008283828B0A4382837047F0B50C4615460F
:10147000002200210026078C4FF6FF6C07EA0C07BC
:101480000784828B018C4FF6FF7707EA04264FF61C
:101490000C773A404FF6FF7707EA03172F433A439A
:1014A000B64FB8420ED0B64FB8420BD0B0F1804F15
:1014B00008D0B44FB84205D0B34FB84202D0B34FB2
:1014C000B84206D14FF6FF57394046F4807739438A
:1014D00005E04FF2FF57394044F480773943828367
:1014E0000184F0BD028B4FF2FF331A400283028B5E
:1014F0004FF6FF7303EA01231A4302837047F0B5E6
:101500000C461546002200210026078C4FF6EF7C82
:1015100007EA0C070784028B018C4FF6FF7707EA76
:10152000041640F6FF473A404FF6FF7707EA0337C5
:101530003A434FF6FF7707EA05273A438F4FB84201
:101540000ED08F4FB8420BD0B0F1804F08D08D4FE6
:10155000B84205D08C4FB84202D08C4FB84206D169
:101560004FF6DF77394046F01007394305E04FF674
:101570005F77394044F01007394302830184F0BD9E
:10158000028B4FF6F3731A400283028B0A430283E5
:101590007047F0B50C46154600220021068C4FF628
:1015A000FE773E400684028B018C4FF60C7632406B
:1015B0007E1C06EA03162E433243704EB0420ED014
:1015C0006F4EB0420BD0B0F1804F08D06D4EB0429C
:1015D00005D06D4EB04202D06C4EB04206D14FF6EF
:1015E000FD76314044F00106314305E04FF6F576D3
:1015F000314044F00106314302830184F0BD70B5EF
:1016000005460C465D4885420ED05D4885420BD0AC
:10161000B5F1804F08D05B48854205D05A488542D5
:1016200002D05A48854200D100E000BF208850B95E
:101630002389A28861882846FFF7ABFFE188284606
:10164000FFF79EFF25E0208804280AD12389A2887D
:1016500061882846FFF753FFE1882846FFF742FFDD
:1016600017E0208808280AD12389A28861882846A3
:10167000FFF7FBFEE1882846FFF7EEFE09E023892D
:10168000A28861882846FFF7A6FEE1882846FFF772
:1016900095FE70BD2DE9F04105460C460026012758
:1016A000608808B9022600E00026A088012801D140
:1016B000022700E001272088A0B92389A288618839
:1016C0002846FFF766FFE1882846FFF759FF238980
:1016D0003A4631462846FFF712FFE1882846FFF7D1
:1016E00001FF13E02389A28861882846FFF707FFDE
:1016F000E1882846FFF7F6FE23893A463146284618
:10170000FFF747FFE1882846FFF73AFFBDE8F08181
:101710000A884B881A438B881A43CB881A430B8953
:101720001A434B891A438B891A43A0F84420704707
:101730004FF6FF71818000210180C18041800172DC
:1017400070470021018041808180C18001814181F9
:101750008181C18170470021018041800121818008
:101760000021C1800181704700210180418081807A
:10177000C18001814181818170470000002C0140BE
:10178000003401400004004000080040000C00400C
:1017900021B1028842F00102028004E002884FF683
:1017A000FE731A400280704731B1B0F8442042F411
:1017B0000042A0F8442005E0B0F84420C2F30E0235
:1017C000A0F8442070471AB183890B43838102E05B
:1017D00083898B43838170478182704741EA02038A
:1017E000A0F8483070471AB183890B43838102E027
:1017F00083898B438381704701894FF6F8721140CA
:10180000018170470A46002101894FF68F73194004
:1018100011430181704730B504460D4629462046E4
:10182000FFF7F0FF208940F00700208130BD2DE94F
:10183000F04104460D4616461F46602D06D13B4634
:10184000012231462046FFF75AFE05E03B460122C1
:1018500031462046FFF79DFE29462046FFF7D2FF7E
:10186000208940F007002081BDE8F08130B50C46AA
:1018700000210189C9B24FF6FF7505EA032515431A
:1018800025432943018130BD2DE9F04105460E462F
:1018900017469846002443463A4631462846FFF705
:1018A000E5FF2C894FF6F870044044F007044FF62A
:1018B0008F70044044F070042C81BDE8F081F0B5D5
:1018C00004460D4616461F463B46324629462046EC
:1018D000FFF7CCFF208940F480402081F0BD0185D6
:1018E000828270470A46002101884FF68F731940A3
:1018F000114301807047F0B50C4615461E46002185
:10190000002200230189028B038C4FF6F8773940BF
:1019100021434FF6FC473A4040F201173A434FF655
:10192000DD773B404FF6FF7707EA06172F433B432F
:10193000018102830384F0BD0A460021018B4FF62A
:101940008F7319401143018370470A460021018BB0
:1019500048F6FF7319404FF6FF7303EA0223194359
:10196000018370470A460021818B4FF68F7319401F
:101970001143818370470A460021818B48F6FF732B
:1019800019404FF6FF7303EA02231943818370471E
:1019900021B1028842F08002028004E002884FF602
:1019A0007F731A400280704721B1828842F004029E
:1019B000828004E082884FF6FB731A408280704771
:1019C00021B1828842F00802828004E082884FF6CA
:1019D000F7731A408280704721B1828842F0010279
:1019E000828004E082884FF6FE731A40828070473E
:1019F0000A460021018B4FF6F7731940114301830A
:101A000070470A460021018B4FF2FF7319404FF6D1
:101A1000FF7303EA02231943018370470A4600213A
:101A2000818B4FF6F77319401143818370470A4643
:101A30000021818B4FF2FF7319404FF6FF7303EAC9
:101A400002231943818370470A460021018B4FF618
:101A5000FB7319401143018370470A460021018B33
:101A60004FF6FF3319404FF6FF7303EA0223194381
:101A7000018370470A460021818B4FF6FB731940A2
:101A80001143818370470A460021818B4FF6FF3353
:101A900019404FF6FF7303EA02231943818370470D
:101AA0000A460021018B4FF67F73194011430183D1
:101AB00070470A460021018BC1F30E014FF6FF73F8
:101AC00003EA02231943018370470A460021818BF0
:101AD0004FF67F7319401143818370470A460021F6
:101AE000818BC1F30E014FF6FF7303EA0223194302
:101AF000818370470A460021018C4FF6FD7319401F
:101B00001143018470470A460021018C4FF6F77398
:101B100019401143018470470A460021018C4FF699
:101B2000DF7319404FF6FF7303EA02131943018470
:101B300070470A460021018C4FF67F7319404FF61B
:101B4000FF7303EA02131943018470470A46002118
:101B5000018C4FF6FF5319404FF6FF7303EA02233F
:101B60001943018470470A460021018C4FF2FF732C
:101B700019404FF6FF7303EA0223194301847047AB
:101B80000A460021018C4DF6FF7319404FF6FF7392
:101B900003EA023319430184704730B5002301245E
:101BA0008C40A3B2048C9C430484048C02FA01F59B
:101BB000ADB22C43048430BD30B5002304248C40E6
:101BC000A3B2048C9C430484048C02FA01F5ADB2E8
:101BD0002C43048430BD70B5034600200024184611
:101BE000183001258D40ACB21D8CA5431D8409B170
:101BF000082909D100EB6100056825F07005056032
:101C00000568154305600EE00D1FC5F34E05284419
:101C1000056825F4E045056005684FF6FF7606EA9D
:101C200002263543056070BD21B1028842F00202F0
:101C3000028004E002884FF6FD731A40028070476C
:101C400021B1028842F00402028004E002884FF6CB
:101C5000FB731A400280704721B1828842F08002F3
:101C6000828004E082884FF67F731A40828070473A
:101C700002884FF6F7731A40028002880A430280F6
:101C8000704782884FF68F731A40828082880A4399
:101C90008280704702894FF6F8731A4002810289E8
:101CA0000A430281704702894FF67F731A4002810E
:101CB00002890A4302817047818470478185704799
:101CC000818670470187704781877047A0F8401070
:101CD000704702884FF6FF431A40028002880A4389
:101CE000028070470146888E70470146088F704712
:101CF0000146888F70470146B1F8400070470146A1
:101D0000888C70470146088D704702460020138A70
:101D10000B400BB1012000E000207047CA43028253
:101D2000704730B50246002000230024158A05EADA
:101D30000103958905EA010413B10CB1012000E00B
:101D4000002030BDCA4302827047000010B504462F
:101D5000FB48844209D101218803FEF709FE0021D6
:101D60004FF48040FEF704FE32E0F648844209D189
:101D700001214804FEF709FE00214FF40030FEF770
:101D800004FE25E0F048844209D101218804FEF7D1
:101D9000FCFD00214FF48020FEF7F7FD18E0EB4832
:101DA000844209D10121C804FEF7EFFD00214FF460
:101DB0000020FEF7EAFD0BE0E548844208D101214E
:101DC0000805FEF7E2FD00214FF48010FEF7DDFD6F
:101DD00010BD2DE9F04786B005460E460024A24608
:101DE00000BFA1460027B08900B100BF2F462C8A52
:101DF0004CF6FF700440F08804432C82AC894EF608
:101E0000F3100440B08831890843718908430443C2
:101E1000AC81AC8A4FF6FF400440B0890443AC82E9
:101E200001A8FEF71EFDC648874202D1DDF810A0CA
:101E300001E0DDF80CA0A88900F4004040B10AEBF5
:101E4000CA0000EB0A1031684900B0FBF1F807E066
:101E50000AEBCA0000EB0A1031688900B0FBF1F808
:101E60006420B8FBF0F004012009642101FB108913
:101E7000A88900F4004040B1322000EBC900B0FB5B
:101E8000F1F000F00700044308E0322000EB0910F5
:101E90006421B0FBF1F000F00F0004432C8106B088
:101EA000BDE8F0874FF41651016000218180C180A8
:101EB00001810C21418100218181704710B50246CA
:101EC0000020108A4FF2FF0318400B884C882343F0
:101ED0008C882343CC8823431843108210BD0021F3
:101EE000018041808180C180704721B1828942F4A4
:101EF0000052828104E082894DF6FF731A4082818C
:101F00007047F0B50346002400260025002040F667
:101F10006A17B94200D100BF1846C1F3421401F05C
:101F20001F06012707FA06F5012C01D10C3004E049
:101F3000022C01D1103000E014301AB107682F4391
:101F4000076002E00768AF430760F0BD1AB1838AFB
:101F50000B43838202E0838A8B4383827047028A29
:101F60004FF6F0731A400282028A0A4302827047D7
:101F700082894FF2FF731A40828182890A438281EB
:101F8000704721B1828942F00202828104E0828995
:101F90004FF6FD731A4082817047028A4FF6DF7355
:101FA0001A400282028A0A430282704721B1028AE1
:101FB00042F48042028204E0028A4BF6FF731A4028
:101FC00002827047C1F30802828070470146888808
:101FD000C0F308007047818941F001018181704799
:101FE000028BD2B20283028B42EA01220283704743
:101FF000028B02F47F420283028B0A430283704702
:1020000021B1828A42F02002828204E0828A4FF665
:10201000DF731A408282704721B1828A42F0100237
:10202000828204E0828A4FF6EF731A408282704700
:1020300021B1828A42F00802828204E0828A4FF64D
:10204000F7731A408282704721B1828942F40042BC
:10205000828103E08289C2F30E028281704721B13E
:10206000828A42F40062828204E0828A4FF2FF7325
:102070001A4082827047828A4FF6FB731A4082822E
:10208000828A0A438282704721B1828A42F0020228
:10209000828204E0828A4FF6FD731A408282704782
:1020A00002460020B1F5007F00D100BF13880B402D
:1020B0000BB1012000E00020704701F40072B2F57E
:1020C000007F00D100BFCA430280704770B502464E
:1020D000002400230025002040F66A16B14200D1FA
:1020E00000BFC1F3421501F01F03012606FA03F3F6
:1020F000012D02D19689334006E0022D02D1168AC5
:10210000334001E0968A33400C12012606FA04F4AB
:102110001688344013B10CB1012000E0002070BDDE
:1021200010B50022002340F66A14A14200D100BF7E
:102130000A1201249440A3B2DC43048010BD0000C5
:10214000003801400044004000480040004C00407E
:1021500000500040002109E0002201E0531C9AB227
:1021600040F6B8339A42F9DB4B1C99B28142F3DB5B
:10217000704710B5FC4BDA685B15FC4C23605B10B4
:1021800023602023241F2360F74BD8602023241DC5
:102190002360241F2360DB002360F34BD9602023DE
:1021A000241D2360241F2360DB002360EE4BDA60D4
:1021B00010BD00B501210020FFF7DBFF4FF47A705E
:1021C000FFF7C8FF00210120FFF7D3FF41F2907114
:1021D0001020FFF7CEFF4FF41C516020FFF7C9FF1E
:1021E00001216120FFF7C5FF02214620FFF7C1FF53
:1021F00048F210011320FFF7BCFF48F2FE01122045
:10220000FFF7B7FF4FF4A0610220FFF7B2FF41F2E2
:1022100030010320FFF7ADFF40F203313020FFF71C
:10222000A8FF40F203313120FFF7A3FF40F2033152
:102230003220FFF79EFF4FF440713320FFF799FFE4
:1022400003213420FFF795FF40F203313520FFF7DB
:1022500090FF14213620FFF78CFF40F20331372026
:10226000FFF787FF40F203313820FFF782FF40F28B
:1022700003313920FFF77DFF4FF440713A20FFF71B
:1022800078FF03213B20FFF774FF40F203313C202D
:10229000FFF76FFF4FF4A0513D20FFF76AFF4FF4A7
:1022A00000719220FFF765FF40F203319320FFF7A2
:1022B00060FF40F60D019020FFF75BFF41F218012F
:1022C0000320FFF756FF40F273110720FFF751FF7D
:1022D00000BD00B543F20801E320FFF74AFF1221D9
:1022E000E720FFF746FF41F23121EF20FFF741FFE2
:1022F00000210120FFF73DFF4FF4E0610220FFF7CE
:1023000038FF41F230010320FFF733FF00210420A2
:10231000FFF72FFF40F207210820FFF72AFF0021D7
:102320000920FFF726FF00210A20FFF722FF0021E6
:102330000C20FFF71EFF00210D20FFF71AFF0021E0
:102340000F20FFF716FF00211020FFF712FF0721D3
:102350001120FFF70EFF00211220FFF70AFF0021D6
:102360001320FFF706FF4FF47A70FFF7F3FE41F2F8
:1023700090611020FFF7FDFE40F227211120FFF7AA
:10238000F8FE3220FFF7E6FE1D211220FFF7F1FED6
:102390003220FFF7DFFE4FF400611320FFF7E9FE64
:1023A00014212920FFF7E5FE0B212B20FFF7E1FE8A
:1023B0003220FFF7CFFE00212020FFF7DAFE0021B8
:1023C0002120FFF7D6FE07213020FFF7D2FE40F292
:1023D00007713120FFF7CDFE06213220FFF7C9FE3D
:1023E00040F204713520FFF7C4FE41F60471362037
:1023F000FFF7BFFE04213720FFF7BBFE0021382086
:10240000FFF7B7FE40F206713920FFF7B2FE40F247
:1024100001713C20FFF7ADFE0F213D20FFF7A9FE23
:1024200000215020FFF7A5FEEF215120FFF7A1FE6C
:1024300000215220FFF79DFE40F23F115320FFF78D
:1024400098FE4FF41C516020FFF793FE012161209C
:10245000FFF78FFE00216A20FFF78BFE002180200E
:10246000FFF787FE00218120FFF783FE00218220F5
:10247000FFF77FFE00218320FFF77BFE00218420F1
:10248000FFF777FE00218520FFF773FE10219020D3
:10249000FFF76FFE00219220FFF76BFE03219320D0
:1024A000FFF767FE4FF488719520FFF762FE002169
:1024B0009720FFF75EFE00219820FFF75AFE41F2B9
:1024C00018010320FFF755FE40F273110720FFF7B4
:1024D00050FE00BD08B54FF6FF70ADF800000320B8
:1024E0008DF8020010208DF8030069461E48FDF7A4
:1024F00069FF08BD08B54FF6FF70ADF80000032076
:102500008DF8020048208DF8030069461648FDF753
:1025100059FF08BD70B504464FF4007013490860B8
:10252000401008602020091F08600F48C460202068
:10253000091D0860091F0860C0000860FFF7DAFF86
:102540004FF48060094908600748806885B2081523
:10255000091F0860FFF7BEFF4FF400700349091F11
:102560000860284670BD000000100140140C0140B6
:1025700008B501211820FEF7E1F901212020FEF71E
:10258000DDF94FF4E460ADF8000001208DF80200A1
:1025900010208DF803006946FB48FDF713FFFFF795
:1025A00099FFF9481030006840F4C460F6491031D2
:1025B000086008BD10B5FFF7DBFF0020FFF7AAFF9A
:1025C000F24908800846008848F23021884202D14A
:1025D000FFF7EFFD01E0FFF77CFE0020FFF79AFF19
:1025E000EA49088010BD01B5BDF80000E84908803F
:1025F00008BD01B5BDF80000E649088008BD30B54A
:1026000004460D4621462020FFF7B3FD2946212030
:10261000FFF7AFFD30BDE04AD1685215DA4B1433F5
:102620001A6052101B1F1A6020221A60DA4AD0600A
:1026300020221B1D1A601B1F1A60D2001A60520054
:102640001A60D54AD1607047D349C8684915CE4A47
:1026500014321160491011602021121F11602221D3
:10266000CD4AD1602021C84A14321160121F116076
:10267000C900116049001160C749C86070472DE961
:10268000F04306468946174600240025A046B0467A
:1026900049464046FFF7B3FF00BF1EE0FFF7D4FFF7
:1026A00000250FE037F814000121A940084020B9A7
:1026B000B8480088FFF7AFFF03E0B5480088FFF790
:1026C000AAFF6D1C102DEDD308F1010000F0FF08EA
:1026D00049464046FFF793FF641C182CDED3BDE843
:1026E000F08370B505460E461446A4F12000C4B22E
:1026F00004EB4400A94901EB001231462846FFF7DC
:10270000BEFF70BDF0B507460C46002540F23F16EF
:1027100009E0227831463846FFF7E3FFA6F11000C2
:1027200086B2641C6D1C207808B1142DF1D3F0BD65
:1027300010B504469AA12046FFF7E4FF10BD30B55E
:102740000546002400210846FFF759FFFFF77CFFEC
:1027500000BF03E02846FFF75EFF641CB4F5963F18
:10276000F8D330BDF0B504460D4616461F46B442B8
:1027700006DBA01B401C81B25020FFF7FAFC03E0EF
:1027800000215020FFF7F5FC21465120FFF7F1FC16
:10279000BD4206DBE81B401C81B25220FFF7E9FC7A
:1027A00003E000215220FFF7E4FC29465320FFF705
:1027B000E0FC29462046FFF722FFF0BD00B54FF4AC
:1027C000A073F022591EEF20FFF7CCFF41F2180151
:1027D0000320FFF7CEFC00BD2DE9F04106468846F8
:1027E00015461F46002441463046FFF708FF5FB9F3
:1027F000FFF72AFF00BF04E065480088FFF70BFFE2
:10280000641CAC42F8D310E000240CE0FFF71CFF7E
:102810005F480088FFF7FFFE701CC6B24146304695
:10282000FFF7EDFE641CAC42F0D3BDE8F081F0B5DB
:1028300005460E4617461C460023224631462846CA
:10284000FFF7CAFFE919C8B2002322463146FFF755
:10285000C3FF01233A4631462846FFF7BDFF301B30
:10286000401C81B201233A462846FFF7B5FFF0BD70
:102870002DE9F04306460F4690460320A0EB480999
:10288000002445466EE07A1991B23219D0B2FFF7B2
:10289000B6FEFFF7D9FE3E480088FFF7BCFE7A1B64
:1028A00091B23219D0B2FFF7AAFEFFF7CDFE384839
:1028B0000088FFF7B0FE7A1991B2321BD0B2FFF751
:1028C0009EFEFFF7C1FE32480088FFF7A4FE7A1B88
:1028D00091B2321BD0B2FFF792FEFFF7B5FE2C4843
:1028E0000088FFF798FE3A1991B27219D0B2FFF73B
:1028F00086FEFFF7A9FE26480088FFF78CFE3A1BEC
:1029000091B27219D0B2FFF77AFEFFF79DFE204810
:102910000088FFF780FE3A1991B2721BD0B2FFF720
:102920006EFEFFF791FE1A480088FFF774FE3A1B0F
:1029300091B2721BD0B2FFF762FEFFF785FE14481A
:102940000088FFF768FEB9F1000F04DA062000EBFB
:102950008400814405E0601B0A2101EB8000814472
:102960006D1E641CAC428ED9BDE8F08370B506467E
:102970000024002540F23F110020FFF740FEFFF742
:1029800063FE00BF2DE00000000C01402C00002081
:10299000280000202A0000200010014044540008B4
:1029A0002020202020202020202020202020202027
:1029B000202020200000000000250FE056F8240011
:1029C0000121A940084020B95F480088FFF723FE95
:1029D00003E05E480088FFF71EFE6D1C202DEDD33E
:1029E000641CB4F5166FE7D370BD70B504460025BE
:1029F00000266688A08846EA00466589A08945EADF
:102A00000045701B46082C4441F208010320FFF7E3
:102A1000B0FBFFF719FE002504E02088FFF7FBFD5F
:102A2000A41C6D1CB542F8D341F218010320FFF736
:102A3000A0FB70BD10B54FF4007045490860401010
:102A400008602020091F086022204249C860202019
:102A50003F490860091F0860C0000860FFF74AFD91
:102A60004FF480603A4908603A48806884B208159B
:102A7000091F0860FFF72EFD4FF400703449091F4D
:102A80000860204610BD00B500211020FFF771FB43
:102A900000211120FFF76DFB00211220FFF769FBD9
:102AA00000211320FFF765FB1420FFF753FB41F2D1
:102AB000B0711020FFF75DFB40F237111120FFF7D6
:102AC00058FB0520FFF746FB40F239111220FFF7B3
:102AD00050FB0520FFF73EFB4FF4E8511320FFF7B2
:102AE00048FB13212920FFF744FB0520FFF732FBA9
:102AF00040F273110720FFF73CFB00BD00B540F228
:102B000073110720FFF735FB00BD00B5002107203A
:102B1000FFF72FFB00BD30B5054600210846FFF743
:102B20006EFDFFF791FD002409E015F81420610007
:102B3000491C695C42EA0120FFF76DFD641CB4F595
:102B4000963FF2DB30BD00002A0000202800002064
:102B5000140C014000100140C82001F062F900F09F
:102B600003F900F04DF901F033FB00F00FFF01F025
:102B700093F901F095FA01F0ADFC01F049F801F08C
:102B8000CBF8FFF717FD0020FFF7D9FD0020FFF776
:102B900030FD4FF6FF70FFF726FD01214FF47F4017
:102BA00000F00AF9C82001F03CF909E001F065FBEA
:102BB0000449087000F0F9FA00F03AF901F0D7F989
:102BC000F4E7000058000020704700BFFEE700BF98
:102BD000FEE700BFFEE700BFFEE7704770477047A3
:102BE00070473EB520214248FFF75AFA002853D0DB
:102BF0003F48FFF7EBF9C4B25D2C08D03D4801789F
:102C00000078401C3B4A10703B48445444E000208C
:102C100038490870022239A1374801F093FC70B995
:102C2000002037490870374800780290364803C8BA
:102C3000CDE9000135480CC835A001F081FF022222
:102C400037A12D4801F07EFC10B901202C490870F5
:102C5000022234A1284801F075FC58B90020284907
:102C6000087031480368314802783148018831A042
:102C700001F066FF022232A11F4801F063FC58B93F
:102C800000201F4908702F4803882F4802882F48CA
:102C9000018828A001F054FF3EBD10B5012188072E
:102CA000FFF73FF8012821D101218007FFF74AF8FB
:102CB00027480078401EC0B22549087010B901208D
:102CC0002449087024480088401E80B222490880A8
:102CD00010B901202149087021480088401E80B2A7
:102CE0001F49088010B901201E49087010BD00005E
:102CF000004400402E000020A400002054310000B9
:102D00009D0000209E000020400000203800002090
:102D1000252E316C662C252E316C662C2564000026
:102D2000473100005731000084000020820000205D
:102D30007400002025642C25642C2564000000000C
:102D4000573200007A000020780000207600002032
:102D500030000020310000207000002072000020B0
:102D60009A0000209800002008B501213020FDF7CE
:102D7000E5FD4FF47F40ADF8000003208DF8020020
:102D800010208DF8030069461B48FDF71BFB04204B
:102D9000ADF8000069461948FDF714FB04211748F7
:102DA000FDF7BDFB4FF47F411348FDF7B8FB04214D
:102DB0001248FDF7B6FB08BD70B505460C4664B970
:102DC00004210E48FDF7ABFB29460B48FDF7A9FB94
:102DD00004210A48FDF7A5FB0DE0012C0BD10421CD
:102DE0000648FDF79CFB29460348FDF798FB0421A4
:102DF0000248FDF796FB70BD001001400014014031
:102E000008B501210C20FDF799FD40F20110ADF845
:102E1000000048208DF803006946FA48FDF7D2FA11
:102E20000620ADF800006946F748FDF7CBFA08BD6B
:102E300010B50121F348FDF758FB80B14FF48071C4
:102E4000F048FDF752FB50B10221EF48FDF74DFB72
:102E500028B10421EC48FDF748FB00287ED1EB485F
:102E600000780028FAD10120E84908701420E849C8
:102E70000870E8480078002871D00020E549087003
:102E80000121E048FDF731FB002869D1E2480078D4
:102E9000401CE149087008460078022826D1DF4826
:102EA000DF490CC803C901F033FD0FD8DD48D0E974
:102EB0000010DA4AC2E90010DB4903C9D84A03C24C
:102EC00000214FF48060FFF777FF0FE0D348D0E98F
:102ED0000010D44AC2E90010D14903C9D24A03C242
:102EE00000F09FFD01218802FFF766FFCA480078C5
:102EF000042848D1CD480088CD490988884205DAA0
:102F0000CB480088CB490988884211DBCA48008831
:102F1000C6490880C9480088C5490880C848008853
:102F2000C449088000214FF40060FFF745FF2AE004
:102F3000C1480088BD49098888420BD1BF48008834
:102F4000BB490988884205D1BD480088B94909882C
:102F5000884202D00020BB49086002E005E1D6E0CB
:102F60001EE0B2480088B4490880B1480088B349DF
:102F70000880B0480088B249088000F098FD01211F
:102F8000C802FFF719FFA4480078032802DD0020DB
:102F9000A14908700020AC490870AC49087003E1F1
:102FA0004FF480719748FDF7A0FA38BB9A48007833
:102FB000012803D09848007803281FD1964800784C
:102FC00001280BD1A1480078401CA0490870084690
:102FD00000780228E3DD01200870E5E08E480078E3
:102FE0000328DCD198480078401C974908700846AF
:102FF00000780328D3DD01200870D5E00221824843
:10300000FDF773FA002856D183480078012803D0D1
:103010008148007803284ED17F48007801281AD1D2
:103020008A480078012802D0022812D108E0884A94
:10303000884B7A4903C901F094FA784A03C209E03F
:10304000834A844B764903C901F08BFA744A03C260
:1030500000E000BFA8E07048007803289FD17A48BC
:103060000078012804D002280DD0032821D115E0D2
:103070006E480088B0F5C37F04DA6C4800880A30D7
:103080006A49088016E06A480088B0F5C37F04DA10
:10309000674800880A30664908800BE06548008868
:1030A000B0F5C37F04DA634800880A3061490880BC
:1030B00000E000BF78E004215348FDF716FA00282D
:1030C00072D155480078012803D05348007803286E
:1030D0006AD15148007801281AD15C48007801284B
:1030E00002D0022812D108E0594A5A4B4B4903C971
:1030F00001F0D8FA494A03C209E0554A554B4849FC
:1031000003C901F0CFFA464A03C200E000BF4BE01A
:1031100041480078032847D14B480078012804D063
:1031200002280CD003281ED113E0404800880A284A
:1031300004DD3E4800880A383C49088014E03C48D9
:1031400000880A2804DD3A4800880A38384908808F
:103150000AE0384800880A2804DD364800880A3822
:103160003449088000E000BF1EE001212548FDF73A
:10317000BCF9012818D101022248FDF7B6F901284F
:1031800012D102212048FDF7B0F901280CD1042109
:103190001D48FDF7AAF9012806D11C48007801282E
:1031A00002D100201949087010BD2DE9FC412A48C0
:1031B0000078012803D028480078022805D1002192
:1031C0004FF48070FFF7F8FD03E001210802FFF7DC
:1031D000F3FD22480078022805DB00214FF400703F
:1031E000FFF7EAFD03E001214802FFF7E5FD0A4889
:1031F000007830B101287DD002287CD003287BD113
:10320000F8E02DE000080140000C014059000020CA
:103210003000002031000020340000204800002051
:103220005000002038000020400000207C000020DA
:103230007E00002080000020760000207800002022
:103240007A0000208400002033000020320000209B
:103250009A9999999999B93F9E000020820000207F
:10326000B548007838B1B448007802281CD1B3487A
:103270000078002818D1B2A1B74801F071FCB7A1BD
:10328000B548143001F06CFCBAA1B348283001F005
:1032900067FCB8A1B0483C3001F062FCB5A1AE4873
:1032A000503001F05DFC30E0A3480078012807D0E1
:1032B000A1480078022828D1A0480078012824D10C
:1032C00001209E4908709EA1A34801F049FCAF4827
:1032D000AFA10CC8A048143001F042FC252000909A
:1032E000B148B2A10CC89C48283001F039FCA1A11A
:1032F000994802E00AE026E09BE03C3001F030FC17
:103300009CA19548503001F02BFC92E0ADA1924871
:1033100001F026FCB148B2A10CC88F48143001F06E
:103320001FFCB548B5A10CC88B48283001F018FC2B
:1033300090A189483C3001F013FC8EA186485030A2
:1033400001F00EFC75E0B3480068B349B0FBF1F042
:10335000C4B2B0480068B0FBF1F201FB12004FF4B8
:103360006161B0FBF1F0C5B2AA480068AA49B0FBA0
:10337000F1F201FB12004FF46161B0FBF1F201FBCD
:1033800012003C21B0FBF1F0C6B2A2480068A2498D
:10339000B0FBF1F201FB12004FF46161B0FBF1F2FE
:1033A00001FB12003C21B0FBF1F201FB12079BA1D3
:1033B000694801F0D5FB9F489FA10CC866481430AE
:1033C00001F0CEFBA2480288A2A16348283001F098
:1033D000C7FBA6480278A6A15F483C3001F0C0FBBD
:1033E0002B462246A8A15C485030CDE9006701F089
:1033F000B7FB1EE0ACA1584801F0B2FBB048028810
:10340000B0A15548143001F0ABFBB4480288B4A118
:103410005148283001F0A4FBB7480288B7A14E48B4
:103420003C3001F09DFB53A14B48503001F098FB1C
:1034300000BF00BF4FF6FF70FFF7D5F846491820D0
:10344000FFF760F9B3480078012824D1B24800782A
:10345000012804D14FF4FC60FFF7C5F803E04FF6F4
:10346000FF70FFF7C0F83C4914314820FFF74AF9D4
:10347000A9480078022804D14FF4FC60FFF7B3F8A4
:1034800003E04FF6FF70FFF7AEF83349283178209C
:10349000FFF738F949E09F480078032836D19F4864
:1034A0000078012804D14FF4FC60FFF79CF803E09A
:1034B0004FF6FF70FFF797F8274914314820FFF7C0
:1034C00021F996480078022804D14FF4FC60FFF7F8
:1034D0008AF803E04FF6FF70FFF785F81E492831A0
:1034E0007820FFF70FF98D480078032804D14FF4B6
:1034F000FC60FFF778F803E04FF6FF70FFF773F812
:1035000015493C31A820FFF7FDF80EE012491431AF
:103510004820FFF7F7F8104928317820FFF7F2F834
:103520000D493C31A820FFF7EDF80B495031D82068
:10353000FFF7E8F8BDE8FC81580000209C0000205F
:10354000202020202044485431315F4461746120A0
:103550002020202020000000D6000020202020462F
:1035600041494C21212120202020202020202020E2
:1035700020000000202020202020202020202020AB
:10358000202020202020202020000000900000206B
:10359000202020543A252E316C6620432020202004
:1035A000202020202000000088000020202020482B
:1035B0003A252E316C662025635248202020202099
:1035C00020000000202020202044485431315F504A
:1035D000617261202020202020000000480000208F
:1035E000202020544D41583A252E316C662043202E
:1035F0002020202020000000500000202020205407
:103600004D494E3A252E316C662043202020202043
:103610002000000084000020805101002020202094
:1036200020204144435F44617461202020202020F9
:103630002000000068000020202020563A252E326D
:103640006C66562020202020202020202000000012
:1036500074000020202020483A2564636D2020203B
:103660002020202020202020200000008200002098
:103670002020204C6576656C3A256420202020208F
:10368000202020202000000020202054494D453AD1
:10369000253032643A253032643A253032643A2596
:1036A00030326420202000002020202020204144AF
:1036B000435F506172612020202020202000000004
:1036C0007C0000202020204C6576656C313A256412
:1036D000636D202020202020200000007E0000209C
:1036E0002020204C6576656C323A2564636D20207D
:1036F0002020202020000000800000202020204CDE
:103700006576656C333A2564636D20202020202087
:103710002000000034000020320000203300002090
:1037200008B58020ADF8000002208DF802002820A6
:103730008DF8030069469F48FCF744FE08BD08B5B4
:103740008020ADF8000002208DF8020010208DF8D6
:10375000030069469748FCF735FE08BD10B50446DE
:1037600024B180219348FCF7DAFE03E080219148E0
:10377000FCF7D7FE10BD10B5044624B140218D489A
:10378000FCF7CDFE03E040218A48FCF7CAFE10BDDD
:1037900010B580218748FCF7A8FE10BD002100E08D
:1037A000491C8142FCD3704710B50120FFF7D6FFBA
:1037B0004FF4FA70FFF7F2FF0120FFF7DCFF4FF440
:1037C000FA70FFF7EBFF0020FFF7C8FF4FF4FA7025
:1037D000FFF7E4FF0020FFF7CEFF4FF4FA70FFF78A
:1037E000DDFF10BD10B50020FFF7C5FF4FF4FA70E4
:1037F000FFF7D4FF0020FFF7B1FF4FF4FA70FFF797
:10380000CDFF0120FFF7B7FF4FF4FA70FFF7C6FFB7
:103810000120FFF7A3FF4FF4FA70FFF7BFFF10BDC1
:1038200010B50524FFF77CFF4FF4FA70FFF7B6FFE1
:103830000120FFF7A0FF4FF4FA70FFF7AFFF0CE095
:10384000601E84B24FF4FA70FFF7A8FF2CB9FFF79F
:1038500076FFFFF7C7FF002010BDFFF799FF002894
:10386000EED1FFF76CFF0020FFF785FF4FF4FA70F1
:10387000FFF794FF0120EFE710B50020FFF76EFF80
:103880004FF4FA70FFF78AFF4FF4FA70FFF786FFE4
:103890000120FFF770FF4FF4FA70FFF77FFF002061
:1038A000FFF769FF4FF4FA70FFF778FF10BD10B50E
:1038B0000120FFF753FF4FF4FA70FFF76FFF01206D
:1038C000FFF759FF4FF4FA70FFF768FF0020FFF78A
:1038D00052FF4FF4FA70FFF761FF10BD70B5044658
:1038E00008251BE00020FFF746FF4FF4FA70FFF7B2
:1038F00055FF04F08000FFF731FF4FF4FA70FFF737
:103900004DFF6006040E4FF4FA70FFF747FF0120E9
:10391000FFF731FF4FF4FA70FFF740FF281EA5F1C3
:103920000101CDB2DED1FFF726FF4FF4FA70FFF7A9
:1039300035FF70BD70B508250024FFF7F1FE16E0D5
:103940006006040E0020FFF716FF4FF4FA70FFF731
:1039500025FF4FF4FA70FFF721FF0120FFF70BFF5F
:103960004FF4FA70FFF71AFFFFF712FF0443281E07
:10397000A5F10101CDB2E3D1FFF7FDFE4FF4FA70DE
:10398000FFF70CFFFFF7DBFE204670BD08B50121F5
:103990000820FCF7D3FFC020ADF8000002208DF80E
:1039A000020010208DF8030069460248FCF70AFD6A
:1039B00008BD0000000C014070B505460C46FFF73D
:1039C000F3FEA020FFF78AFFFFF72AFF2846FFF744
:1039D00085FFFFF725FF2046FFF780FFFFF720FF59
:1039E000FFF700FF70BD70B50446FFF7DDFEA020B5
:1039F000FFF774FFFFF714FF2046FFF76FFFFFF795
:103A00000FFFFFF7D1FEA120FFF768FFFFF708FFC8
:103A1000FFF790FF0546FFF703FFFFF7E3FE284699
:103A200070BD70B50022D94BD94903C900F040FEE2
:103A3000054600F03CFF84B2642094FBF0F0C5B270
:103A400029460120FFF7B8FF052000F0EAF96420BD
:103A500094FBF0F100FB1140C5B229460220FFF7AC
:103A6000ABFF052000F0DDF90022C84BC94903C9AE
:103A700000F01EFE054600F01AFF84B2642094FB9D
:103A8000F0F0C5B229460320FFF796FF052000F0AD
:103A9000C8F9642094FBF0F100FB1140C5B229463F
:103AA0000420FFF789FF052000F0BBF970BD10B5B9
:103AB000B94800880A2190FBF1F0C4B221460520E4
:103AC000FFF77AFF052000F0ACF9B34800880A211F
:103AD00090FBF1F201FB1200C4B221460620FFF771
:103AE0006BFF052000F09DF9AC4800880A2190FB8F
:103AF000F1F0C4B221460720FFF75EFF052000F079
:103B000090F9A64800880A2190FBF1F201FB12000F
:103B1000C4B221460820FFF74FFF052000F081F9CD
:103B20009F4800880A2190FBF1F0C4B22146092089
:103B3000FFF742FF052000F074F9994800880A2138
:103B400090FBF1F201FB1200C4B221460A20FFF7FC
:103B500033FF052000F065F910BD10B591480068ED
:103B60009149B0FBF1F0C4B221460B20FFF724FFCE
:103B7000052000F056F98B4800688B49B0FBF1F244
:103B800001FB12004FF46161B0FBF1F0C4B22146B9
:103B90000C20FFF711FF052000F043F98148006871
:103BA0008149B0FBF1F201FB12004FF46161B0FBFF
:103BB000F1F201FB12003C21B0FBF1F0C4B221464E
:103BC0000D20FFF7F9FE052000F02BF9754800687D
:103BD0007549B0FBF1F201FB12004FF46161B0FBDB
:103BE000F1F201FB12003C21B0FBF1F201FB1204E7
:103BF00021460E20FFF7E0FE052000F012F96B4889
:103C000001780F20FFF7D8FE052000F00AF910BD5B
:103C10002DE9F0410120FFF7E6FE0446052000F003
:103C200000F90220FFF7DFFE0546052000F0F9F855
:103C300004EBC40101EB041105EB810000F019FE57
:103C400006460022514B00F0A5FD594A03C2504AD6
:103C500003C20320FFF7C7FE0446052000F0E1F889
:103C60000420FFF7C0FE0546052000F0DAF804EB5B
:103C7000C40101EB041105EB810000F0FAFD0646DA
:103C80000022424B00F086FD4A4A03C2414A03C269
:103C90000520FFF7A8FE0446052000F0C2F8062024
:103CA000FFF7A1FE0546052000F0BBF804EB8400F9
:103CB00005EB400040490880374908800720FFF79E
:103CC00092FE0446052000F0ACF80820FFF78BFEBA
:103CD0000546052000F0A5F804EB840005EB400044
:103CE000364908802D4908800920FFF77CFE0446EC
:103CF000052000F096F80A20FFF775FE054605201E
:103D000000F08FF804EB840005EB40002C4908809C
:103D100023490880BDE8F0812DE9F0410B20FFF731
:103D200062FE8046052000F07CF80C20FFF75BFE69
:103D30000446052000F075F80D20FFF754FE0546F7
:103D4000052000F06EF80E20FFF74DFE0646052018
:103D500000F067F80F20FFF746FE0746052000F049
:103D600060F8114808FB00F0C4EB4411C1EB0421DA
:103D700000EB0110C5EB051100EB8100304409494F
:103D800008600A480770BDE8F08100000000594053
:103D9000380000204000002076000020780000203D
:103DA0007A00002084000020805101008200002061
:103DB00048000020500000207C0000207E000020F1
:103DC0008000002030B50146481EB0F1807F01D34D
:103DD000012030BD481E4FF0E022506150170F22E5
:103DE000002807DA13071D0E274B00F00F04241FCD
:103DF0001D5503E013071C0E244B1C5400BF00206C
:103E00004FF0E02290611046006920F0040010613C
:103E10001046006920F002001061012010610020AE
:103E2000D7E770B504461A480068C0084FF47A71A5
:103E3000B0FBF1F63046FFF7C5FF002508E000BFF4
:103E40004FF0E020006900F480300028F8D06D1CAD
:103E5000A542F4D370BD70B504460D480068C00893
:103E60000C49B0FBF1F63046FFF7ACFF002508E047
:103E700000BF4FF0E020006900F480300028F8D047
:103E80006D1CA542F4D370BD18ED00E000E400E025
:103E90000000002040420F0000B587B04FF4804082
:103EA000FCF7B0FC01214FF40270FCF747FD012044
:103EB000ADF8180000208DF81B0006A96748FCF734
:103EC00081FA002001908DF808008DF809004FF468
:103ED000602003900020049001208DF8140001A9B7
:103EE0005F48FCF724FE0523012208215C48FCF70B
:103EF000B6FE01215A48FCF746FE5948FCF765FE1C
:103F000000BF5748FCF766FE0028FAD15448FCF77A
:103F10006BFE00BF5248FCF76CFE0028FAD107B0D8
:103F200000BD10B501214E48FCF76DFE00BF022117
:103F30004B48FCF7D9FF0028F9D04948FCF7F6FEBA
:103F4000044600214648FCF75EFE204610BD70B5D1
:103F50000024002504E0FFF7E4FF0444681CC5B218
:103F60000A2DF8DB0A20B4FBF0F4A0B270BD2DE9F5
:103F7000F0413C48007800286ED000203949087094
:103F80004FF47A7038490880FFF7CBFF3749088033
:103F90000846008800F07EFC06460022344B00F004
:103FA000F9FB04464FF06632324B00F081FB324A97
:103FB00003C2324A324B304903C900F079FB044650
:103FC00000F075FC2F490880084600882E490988B2
:103FD000884203DC00202D49087028E02948008829
:103FE00029490988884209DD264800882849098826
:103FF000884203DC01202549087018E02148008828
:1040000023490988884209DD1E480088214909881A
:10401000884203DC02201D49087008E01948008826
:104020001C490988884202DD032018490870174896
:10403000007819490978884203D0002017490860A0
:1040400004E016480068401C144908600F480078D6
:1040500011490870FFF781FDBDE8F081000C0140B7
:104060000024014072000020700000206000002049
:1040700000FEAF4066660A40680000204E36D964F4
:10408000934D5E40740000207600002083000020E5
:10409000780000207A0000208200002084000020A8
:1040A00000B587B001210420FCF748FC0121480439
:1040B000FCF751FC0820ADF8180004208DF81B0017
:1040C00006A94148FCF77EF90420ADF8180003204A
:1040D0008DF81A0018208DF81B0006A93A48FCF745
:1040E00071F94FF4E060FCF78DFC26208DF8040098
:1040F00001208DF8050000208DF8060001208DF8C4
:10410000070001A8FCF783FC4FF416500290002032
:10411000ADF80C00ADF80E00ADF81000ADF81400CD
:104120000C20ADF8120002A92848FDF752FE01222A
:1041300040F225512548FDF7E4FE01212348FDF713
:10414000D4FE07B000BD70B505460C4621461F4899
:10415000FDF738FF00BF80211C48FDF7A1FF0028B4
:10416000F9D070BD70B505460C4600BF14F8011BB0
:104170002846FFF7E8FF20780028F7D100BF40214C
:104180001248FDF78DFF0028F9D070BD70B50446C8
:104190000D46E1B20D48FDF715FF00BF40210B4869
:1041A000FDF77EFF0028F9D0204670BD10B504460B
:1041B00000BF20210548FDF773FF0028F9D0034810
:1041C000FDF704FF10BD000000080140004400405E
:1041D00008B501210420FCF7B1FB0220ADF8000076
:1041E00010208DF8030003208DF8020069469948DD
:1041F000FCF7E8F808BD08B50220ADF8000048203B
:104200008DF8030003208DF8020069469148FCF701
:10421000D9F808BD08B50220ADF8000010208DF8CF
:10422000030003208DF8020069468A48FCF7CAF8AB
:1042300008BD70B5002500241BE000BF02218548A1
:10424000FCF753F90028F9D03220FFF704FE0221D1
:104250008048FCF74AF9012809D100BF02217D48B6
:10426000FCF743F90128F9D0802020410543601C68
:10427000C4B2082CE1DB284670BD2DE9F04786B0BA
:1042800000247548007801287DD10020724908700B
:104290004FF4FA6071490880FFF7BCFF02216D48B6
:1042A000FCF73FF91620FFF7BCFD02216948FCF737
:1042B00036F91E20FFF7CFFDFFF79DFF022165486D
:1042C000FCF713F900287DD10AE0601C84B2B4F534
:1042D0007A7F05DD00206249087006B0BDE8F087EE
:1042E00002215C48FCF701F90028EED0002408E028
:1042F000601C84B2B4F57A7F03DD00205849087051
:10430000EBE702215348FCF7F0F80128F0D0FFF763
:1043100090FF0546FFF78DFF0646FFF78AFF074629
:10432000FFF787FF8046FFF784FF8146FFF772FFA4
:1043300002214848FCF7F3F8A8193844404400F03B
:10434000FF0AD1456DD1304600F0A4FA0022454B5A
:10435000CDE9000100F01EFACDE90401284600F085
:1043600099FACDE90201DDE9042300F0FAF83E4AAA
:1043700003C2404600F08EFA00223A4BCDE900011C
:1043800000F008FA00E062E0CDE90401384600F0F0
:1043900081FACDE90201DDE9042300F0E2F8334AB5
:1043A00003C201202E490870314830490CC803C9A6
:1043B00000F0AEFA08D32F482C490CC803C900F00E
:1043C0008FFA00E038E015D2294828490CC803C903
:1043D00000F09EFA03D20120274908700DE025481D
:1043E00022490CC803C900F07BFA06D202202249F8
:1043F000087002E000202049087020480078012859
:104400000DD11D4800780290184803C8CDE900017D
:1044100015480CC800E004E019A000F091FB012051
:104420005BE716480078012802D124A000F088FB41
:1044300000200B49087050E710480078012802D18D
:104440001EA000F07DFB00200549087045E7022012
:1044500043E7000000080140980000209A00002077
:104460009C000020000024408800002090000020D4
:1044700038000020400000209E0000209D00002009
:10448000B6C1C8A14448543131CAFDBEDDB3C9B973
:10449000A6A3A10D0ACAAAB6C8A3BA252E316C6676
:1044A00020A3A552482CCEC2B6C8A3BA252E316C83
:1044B0006620A1E62C25640D0A000000B6C1C8A143
:1044C0004448543131CAFDBEDDCAA7B0DCA3A10DFA
:1044D0000A0000001FB501210846FCF73CFA1C2029
:1044E0008DF8000001208DF8010000208DF80200F9
:1044F00001208DF803006846FCF789FA4FF4E0606C
:10450000FCF780FA4FF47A70ADF808004720ADF858
:1045100004000020ADF80A00ADF8060001A94FF034
:104520008040FCF7D9FD00214FF08040FDF7C4FB2F
:1045300001218807FDF72CF9012211469007FDF7AC
:1045400042F91FBD30B505460020034600E05B1C64
:10455000934205D2EC5CC85C201A01D1002CF6D144
:1045600030BD2DE9FE4F804681EA0300C00F0C46A6
:10457000009021F0004123F00045B8EB0200A94172
:1045800005D24046214690461C460B46024623F083
:104590000040104347D0270DC7F30A00C3F30A5168
:1045A0000290401A019040286BDAC3F3130040F4E4
:1045B000801B0098924620B10023D2EB030A63EBE4
:1045C0000B0B01985946C0F14002504600F0FFF92C
:1045D00006460D4650465946019A00F017FA10EB70
:1045E00008006141002487EA115284EAE7731A4304
:1045F00040D0009A62B3019A012A4FEA075215DCB3
:10460000001B61EB02014FF0004202EA0752CDE9C4
:104610000042001C41F5801132462B4600F017FA8B
:1046200003B0BDE8F08F40462146F9E7001B61EB7F
:104630000201001C41F5801300185B412018A2F50F
:10464000001747EB030140EAD570B6196D4111E040
:104650006D084FEA360645EAC0754FEA0752001B5F
:1046600061EB0201001C41F5801149084FEA30005E
:104670000019514132462B4603B0BDE8F04F00F01F
:10468000D7B90098012240000023D0EB020263EB6F
:10469000E073009821464FEAE074B8EB000061EB4C
:1046A0000401E9E783F000435BE781F0004158E74C
:1046B0002DE9FE4F81EA030404F0004421F000419B
:1046C00000944FF0000B23F0004350EA01045ED049
:1046D00052EA03045BD0C3F30A54C1F30A552C44D5
:1046E000A4F2F3340194A0FB0254C1F3130141F48A
:1046F0008011C3F3130343F4801301FB024400FB56
:10470000034E840A970A44EA815447EA8357A4FB7C
:10471000076802958D0A05FB07854FEA932C04FB79
:104720000C542705029D4FEA065847EA1637B5EBA9
:1047300008056EEB070C870E920E47EA811742EAD6
:104740008312A7FB0201B6EB0B0164EB00042B0DF7
:1047500043EA0C335E1844EB1C50DA465146E7FB43
:104760000201C5F313044FEA0B3343EA14534FEA33
:104770000432019C43EA0603A4F10C040294009C59
:10478000CDE900B400F063F903B0BDE8F08F00207C
:104790000146F9E72DE9F04D81EA030404F0004BEE
:1047A00021F0004514464FF0000A23F0004150EA82
:1047B000050220D054EA01021DD0C5F30A57024673
:1047C000C5F31303C1F31300C1F30A5640F4801577
:1047D00043F48013A7EB0608101BD64608F2FD38F9
:1047E00073EB050002D308F1010801E092185B4168
:1047F000B8F1000F03DA00200146BDE8F08D00207B
:104800004FF48011064684460EE0171B73EB050734
:1048100005D3121B63EB050306434CEA010C490860
:104820004FEA300092185B4150EA0107EDD152EA9D
:10483000030012D082EA040083EA0501084305D090
:10484000101BAB4106D20122002306E000224FF0EC
:10485000004302E06FF0010253101AEB06004CEB2C
:10486000085110EB0A0041EB0B01BDE8F04D00F0E0
:10487000DFB80EB5C10F80EAE0700844CA07002116
:1048800040F233438DE80E000A460B4600F0DFF895
:1048900003B000BD0EB540F2334102910021CDE9D5
:1048A00000110A460B4600F0D2F803B000BDC1F378
:1048B0000A5210B5C1F3130140F2FF3341F48011E5
:1048C0009A4201DA002010BD40F233439A42A2F22C
:1048D000334203DC524200F089F810BD904010BD15
:1048E00030B5041E71F1000404DB4FF00044404277
:1048F00064EB0101141E73F1000405DB1C464FF04C
:104900000043524263EB04038B4208BF824230BD36
:1049100030B5041E71F1000404DB4FF00044404246
:1049200064EB0101141E73F1000405DB1C464FF01B
:104930000043524263EB0403994208BF904230BDEA
:1049400030B50B46014600202022012409E021FA5F
:1049500002F59D4205D303FA02F5491B04FA02F55C
:104960002844151EA2F10102F1DC30BD2DE9F05FF3
:104970000546002092469B468846064681464024CE
:104980001BE0284641464746224600F02FF8534692
:104990005A46C01A914110D311461846224600F0DB
:1049A00016F82D1A67EB01084F4622460120002118
:1049B00000F00DF817EB00094E41201EA4F1010490
:1049C000DFDC484631462A464346BDE8F09F202AB0
:1049D00004DB203A00FA02F1002070479140C2F156
:1049E000200320FA03F3194390407047202A04DB88
:1049F000203A21FA02F00021704721FA02F3D04058
:104A0000C2F120029140084319467047202A06DB74
:104A1000CB17203A41FA02F043EAE07306E041FA8C
:104A200002F3D040C2F1200291400843194670477A
:104A300010B5141E73F1000408DA401C41F10001A6
:104A400092185B411A4301D120F0010010BD2DE9FD
:104A5000F04D92469B4611B1B1FA81F202E0B0FAF4
:104A600080F220329046FFF7B2FF04460F4640EA3C
:104A70000A0041EA0B0153465A46084313D0114637
:104A800053EA010019D0C8F140025046FFF7AEFFCB
:104A900005460E46504659464246FFF798FF0843E2
:104AA00005D0012004E020463946BDE8F08D002005
:104AB000054346EAE0762C4337430A986305E40A47
:104AC000A0EB08000022FD0A44EA47540A3002D550
:104AD00000200146E9E7010510196941DDE90845B3
:104AE00000196941BDE8F04DA2E7C1F30A52C1F3D4
:104AF000130140F2FF3341F480119A4202DA0020A0
:104B00000146704740F233439A42A2F2334202DC3C
:104B10005242FFF76BBFFFF75ABF0000064C074D2C
:104B200006E0E06840F0010394E80700984710347D
:104B3000AC42F6D3FBF7DEFA1466000834660008D0
:104B40000FB4054B10B503A9044A029800F0DEF833
:104B500010BC5DF814FB00008D410008A00000208F
:104B60000FB4084B10B504A902AA039800F0CEF8C0
:104B7000044602A9002000F060FC204610BC5DF84D
:104B800014FB00003B54000802E008C8121F08C1D3
:104B9000002AFAD170477047002001E001C1121FBE
:104BA000002AFBD1704700002DE9FF5FDDE90220FC
:104BB000010DDDF838B0024318D044F61050A1F2D0
:104BC000FF3141430D140F98012820D0A5EB0B00B5
:104BD000401C5FEA000A4FF00004474EDFF81C91CA
:104BE000A046504616D5CAF1000728E00F980124C8
:104BF00043A2012808D0002100980F9BC0E90021A2
:104C0000C0E90243BDE8FF9F6FEA0B01F4E7CBF177
:104C10000000DEE7074612E0F80707D022463346D9
:104C200040464946FFF744FD8046894622463346C2
:104C300010461946FFF73CFD04460E467F10002F34
:104C4000EAD1DDE90201BAF1000F42464B4602DA31
:104C5000FFF72EFD01E0FFF79DFD04460E46002202
:104C6000284BFFF755FE03D84FF0FF30014607E011
:104C70000022254B20463146FFF773FCFFF735FF36
:104C8000102409E0002C0ADB0A220023FFF76EFE45
:104C9000019B30321A55641E50EA0102F2D1641CA5
:104CA000019AC4F1110314440F9A012A03D001227E
:104CB00008430DD10AE0084304D000204FF0110B47
:104CC0000F9080E7A3EB0B056D1E0DE05B4504DD47
:104CD0004FF0000205F1010504E003DA4FF0000295
:104CE000A5F10105002AECD000980F99C0E9023126
:104CF000C0E9004586E70000000024400000F03FC6
:104D0000300000000000F0430000E03F2DE9FF4FBD
:104D100095B09B468946064600250FE2252877D1A7
:104D200000242746F84A0121059400E0044316F8C0
:104D3000013F203B01FA03F01042F7D130782A28D6
:104D400011D06FF02F033078A0F13002092A16D865
:104D5000059A44F0020402EB820203EB4202104483
:104D6000761C0590EFE759F8042B0592002A03DA28
:104D7000504244F40054059044F00204761C30780C
:104D80002E2816D116F8010F44F004042A280DD05D
:104D90006FF02F023078A0F13003092B09D807EB10
:104DA000870302EB4303C718761CF3E759F8047B2B
:104DB000761C30786C280FD006DC4C2817D0682879
:104DC0000DD06A2814D104E0742810D07A280FD1AD
:104DD0000DE044F400140AE044F4801401E044F4CB
:104DE00040147278824202D104F58014761C761C3D
:104DF000307866280BD013DC582877D009DC0028DF
:104E000075D04528F6D04628F4D047281AD19DE120
:104E100018E0632835D0642879D0652812D195E14F
:104E2000702873D008DC6728F1D069286FD06E280D
:104E30000DD06F2806D1B5E073282CD0752875D019
:104E4000782874D05A46179990476D1C75E1C4F3C1
:104E50000250022809D003280DD0D9F800100428E8
:104E60000DD00D6009F1040967E1D9F80010EA17C7
:104E7000C1E90052F6E7D9F800100D80F2E70D7095
:104E8000F0E719F8041B8DF8001000208DF80100E0
:104E9000EA46012003E059F804AB4FF0FF30610708
:104EA0004FF0000102D40DE008F101018846B9423B
:104EB0000FDA8045F8DB1AF808100029F4D108E071
:104EC00008F1010188468142FADB1AF8081000292E
:104ED000F6D105985B46A0EB080721463846179A9D
:104EE00000F094FA284400EB080507E04DE029E1C2
:104EF0000DE01AF8010B5A4617999047B8F10108CE
:104F0000F7D25B4621463846179A13E142E00A225F
:104F10000092C4F302524FF0000A022A08D059F856
:104F200004CB032A4FEAEC710AD00DE029E02AE015
:104F300009F1070121F00702F2E802C1914609E0F8
:104F40000FFA8CFC4FEAEC71042A03D14FFA8CFC67
:104F50004FEAEC71002907DA0A460021DCF1000C67
:104F600061EB02012D2202E0220504D52B228DF8EF
:104F70000420012203E0E20701D02022F7E7904657
:104F800059E00A2102E010220DE010214FF0000A42
:104F900000910BE010224FF0000A44F004040827AF
:104FA000009203E008224FF0000A0092C4F302527C
:104FB000022A05D059F804CB0021032A08D009E0C1
:104FC00009F1070121F00702F2E802C1914605E06C
:104FD0001FFA8CFC042A01D10CF0FF0C4FF00008E2
:104FE000220728D5702806D0009B83F0100353EACF
:104FF0000A0305D00EE040228DF80420012208E0CB
:105000005CEA010206D030228DF804208DF80500FC
:1050100002229046009B83F0080353EA0A030AD158
:105020005CEA010201D1620705D530228DF8042027
:105030004FF001087F1E582804D034A003900EA81A
:1050400002900DE036A0F9E753466046009AFFF75C
:105050008DFC84460398825C0298401E0290027088
:105060005CEA0100F0D1029806A9081A00F1200AB2
:10507000600702D524F4803400E00127574502DDA3
:10508000A7EB0A0000E0002000EB0A010090059861
:105090004144401A0590E00306D45B462146179A26
:1050A000059800F0B3F90544002706E001A85A4628
:1050B000C05D179990476D1C7F1C4745F6DBE003E8
:1050C0000CD55B462146179A059800F09FF90544D8
:1050D00004E030205A46179990476D1C0099481EED
:1050E00000900029F5DC08E0029802995A46007801
:1050F000491C0291179990476D1CBAF10001AAF161
:10510000010AF1DC65E10000092801003031323389
:1051100034353637383961626364656600000000F3
:1051200030313233343536373839414243444546DD
:105130000000000000F058F90544761C3078002883
:105140007FF4ECAD19B02846BDE8F08F620700D4BB
:10515000062709F1070222F0070CFCE80223E146CA
:1051600003F000485FEA080C02D00FF2702C0DE04B
:105170005FEA045C02D50FF2682C07E05FEAC47CAA
:1051800002D00FF2602C01E0AFF2700C4FF0FF384C
:1051900023F00043CDF850C065280CD006DC45282C
:1051A00009D046281DD047283DD13DE0662818D0BB
:1051B00067287ED138E00021112F01DB112000E0AB
:1051C000781CCDE9000106A90EA8FFF7EDFCDDE98A
:1051D0000F010E9A03910021009207F1010A049138
:1051E0004DE04FF000400097CDE9011006A90EA850
:1051F000FFF7DAFCDDE90F0203920E9B1199002202
:10520000DDF80CA00093049211B9791C00EB010A9F
:10521000B7EB0A0004D4C0F1FF3007F1010A049093
:10522000AAEB0700019044E0012F00DA01270021DA
:10523000112F01DD112000E03846CDE9000106A95B
:105240000EA8FFF7B1FCDDE90F010E9A03910021D2
:1052500004910092BA4621070CD40399514500DA13
:105260008A46BAF1010F05DD009AAAF10101515CED
:10527000302908D0B84202DA10F1040F06DA012111
:10528000CDE9011015E0AAF10101E9E7002805DCEC
:10529000049901440491AAEB000102E0411C51452C
:1052A00000DD8A460499401A401C01904FF00040EE
:1052B0000290200704D40198504501DBCDF804800A
:1052C00000208DF84F0002980DF14F07B0F1004F0C
:1052D00025D02B200E9002984FF0020800280CDAFF
:1052E000404202902D200E9007E00A210298FFF71D
:1052F00027FB3031029007F8011DB8F10001A8F139
:105300000108F2DC02980028EFD1791E0E9808708F
:10531000307800F0200040F0450007F8020D12A898
:10532000C01B00F107081498007800B1012000EBC1
:105330000A01019801EBE07105984144401A401EB2
:105340000590E00306D45B462146179A059800F0C5
:105350005DF805441498007818B15A46179990479B
:105360006D1CE00324D55B462146179A059800F092
:105370004DF805441CE00498002807DBDDE9030133
:10538000884203DD0098405C179901E017993020AE
:105390005A469047049805F10105401C0490019875
:1053A000401E019004D12E205A46179990476D1C3B
:1053B000BAF10001AAF1010ADDDC05E017F8010BE2
:1053C0005A46179990476D1CB8F10001A8F10108E1
:1053D000F4DC5B462146179A0598ABE62D000000E9
:1053E0002B000000200000002DE9F04104460025BC
:1053F0001E461746880404D405E039462020B047ED
:105400006D1C641EF9D52846BDE8F0812DE9F041F8
:10541000044600251E469046C80301D5302700E00B
:105420002027880404D505E041463846B0476D1C66
:10543000641EF9D52846BDE8F0810A68531C0B604C
:105440001070704700000000000000000000000025
:10545000000000000000000000000000000000004C
:10546000000000000000000000000000000000003C
:1054700000000000000080018001800180018001A7
:105480008001800180018001800180018001800114
:10549000000000008001800100000000000000000A
:1054A0000000000000000000CC00CC00CC00CC00CC
:1054B000CC00CC0000000000000000000000000054
:1054C00000000000000000000000000000000000DC
:1054D00000000000000000000000000000000000CC
:1054E000600C600C600C30063006FE1FFE1F30069C
:1054F00038071803FE1FFE1F180318038C018C01C8
:105500008C01000000008000E003F80F9C0E8C1C52
:105510008C188C009800F801E007800E801C8C1815
:105520008C189C18B80CF00FE0038000800000007D
:10553000000000000000000000000E181B0C110C01
:1055400011061106110311039B018E01C038C06CB6
:1055500060446044304430441844186C0C380000F7
:10556000000000000000E001F003380718061806EC
:105570003003F001F000F8009C310E33061E061CCB
:10558000061C063FFC73F021000000000000000034
:1055900000000000000000000C000C000C000C00DB
:1055A0000C000C00000000000000000000000000E3
:1055B00000000000000000000000000000000000EB
:1055C000000000000000000200038001C000C000D5
:1055D00060006000300030003000300030003000EB
:1055E0003000300060006000C000C0008001000397
:1055F00000020000000020006000C0008001800167
:105600000003000300060006000600060006000670
:10561000000600060003000380018001C000600056
:10562000200000000000000000000000000000005A
:10563000C000C000D806F807E001300338070000BA
:10564000000000000000000000000000000000005A
:10565000000000000000000000000000000000004A
:1056600080018001800180018001FC3FFC3F8001BE
:105670008001800180018001000000000000000026
:10568000000000000000000000000000000000001A
:10569000000000000000000000000000000000000A
:1056A0000000000000008001800100010001800076
:1056B00000000000000000000000000000000000EA
:1056C000000000000000000000000000E007E0070C
:1056D00000000000000000000000000000000000CA
:1056E00000000000000000000000000000000000BA
:1056F00000000000000000000000000000000000AA
:10570000000000000000C000C00000000000000019
:10571000000000000000000C000C0006000600065F
:105720000003000300038003800180018001C000AA
:10573000C000C00060006000000000000000000029
:10574000000000000000E003F007380E180C0C18F1
:105750000C180C180C180C180C180C180C180C1829
:10576000180C380EF007E0030000000000000000F5
:1057700000000000000000018001C001F00198015C
:105780008801800180018001800180018001800109
:105790008001800180018001000000000000000005
:1057A000000000000000E003F80F180C0C180C18A3
:1057B00000180018000C000600038001C000600003
:1057C00030001800FC1FFC1F00000000000000005B
:1057D000000000000000E001F807180E0C0C0C0C93
:1057E000000C0006C003C007000C001800180C18BD
:1057F0000C18180CF807E00300000000000000007F
:10580000000000000000000C000E000F000F800DD3
:10581000C00C600C600C300C180C0C0CFC3FFC3FF6
:10582000000C000C000C000C000000000000000048
:10583000000000000000F80FF80F180018000C001E
:10584000EC03FC071C0E001C0018001800180C18B4
:105850001C0C180EF807E003000000000000000018
:10586000000000000000C007F00F381C18181800D6
:105870000C00CC03EC0F3C0E1C1C0C180C180C1864
:10588000181C380EF007E0030000000000000000C4
:10589000000000000000FC1FFC1F000C00060006BA
:1058A000000380038001C001C000E00060006000D0
:1058B00070003000300030000000000000000000E8
:1058C000000000000000E003F007380E180C180C70
:1058D000180C3806F007F007180C0C180C180C18E8
:1058E0000C18380CF80FE003000000000000000066
:1058F000000000000000E003F007380E1C0C0C183C
:105900000C180C181C1C381EF81BE0190018000C91
:10591000000C1C0EF807F001000000000000000061
:105920000000000000000000000000000000000077
:105930008001800100000000000000000000000065
:105940000000000080018001000000000000000055
:105950000000000000000000000000000000000047
:105960008001800100000000000000000000000035
:1059700000000000800180010001000180000000A3
:105980000000000000000000000000000000000017
:10599000000000000010001C800FE003F800180059
:1059A000F800E003800F001C001000000000000061
:1059B00000000000000000000000000000000000E7
:1059C00000000000F81F000000000000F81F0000A9
:1059D00000000000000000000000000000000000C7
:1059E00000000000000000000000000000000000B7
:1059F0000000000008003800F001C007001F001878
:105A0000001FC007F001380008000000000000007F
:105A1000000000000000E003F80F180C0C180C1830
:105A20000018000C000600038001C000C000C00088
:105A300000000000C000C0000000000000000000E6
:105A40000000000000000000E00718180420C22930
:105A5000224A114409440944094409221113E20C61
:105A6000024004201818E0070000000000000000B9
:105A700000000000000080038003C006C006C006CE
:105A8000600C600C301830183018F83FF83F1C706C
:105A90000C600C6006C006C00000000000000000A2
:105AA000000000000000FC03FC0F0C0C0C180C188C
:105AB0000C180C0CFC07FC0F0C180C300C300C30C4
:105AC0000C300C18FC1FFC07000000000000000058
:105AD000000000000000C007F01F38381C300C70B8
